:030000000205C234
:0C05C200787FE4F6D8FD7581160205B4C0
:1004D10007010801090107010701080109010701D5
:1004E10009010A010B0209010A010B020B010C01AE
:1004F1000B010A01090207020B010C010B010A01A0
:100501000902070208020402070215020802040296
:06051100070215021500AF
:0E05B4001205CE7BFF7A0479D112051780F56F
:10047D0001060126014A015D018801B801EE020B5A
:10048D00024B029302BA0310037003DC04160497A7
:10049D0005260575062006E007AFF922F9E1FA8C6D
:1004AD00FAD8FB69FBE9FC5BFC8FFCF0FD45FD6CAC
:1004BD00FDB5FDF5FE2EFE47FE78FEA3FEB7FEDB75
:0404CD00FEFAFF161E
:0605CE001205D4D2A222A6
:100592008E158F16C2A212057FD2A2AF16AE150219
:0205A200057FD3
:1003D600E50E7002C322E50D64156061E50D25E0AA
:1003E60024A7F582E43404F583E493F50F740193AE
:1003F600F510E50D25E0247DF582E43404F583E46B
:1004060093FC740193FDAF0E7E001203B6EEC31388
:10041600F511EF13F512E4F513F514C3E51495126F
:10042600E5116480F8E5136480985049AF10AE0F6B
:100436001205920514E51470E2051380DE750F4C63
:10044600751000E50E75F00AA485F011F512E4F5B5
:1004560013F514C3E5149512E5116480F8E51364E9
:1004660080985011AF10AE0F12057F0514E5147079
:07047600E2051380DED32232
:100517008B088A09890AE4F50BF50C050CE50CAE86
:100527000B7002050B1425E0FFEE33FEAB08E50A5E
:100537002FF9E5093EFA780D7C007D007E007F02E9
:090547001203901203D640D322E6
:0505D400C2C9C2CA22E9
:10057F00AD07AC068CCDEDF5CCD2CA30CFFDC2CFD6
:03058F00C2CA22BB
:1005A400EFF4FFEEF4FEEF2401FFE43EFE02057FCC
:10055000AD07AC06E41202067BFA7AED796B783FC0
:100560001200FBE4FBFAF9783F12000A12023FEF97
:0F057000F4FFEEF4FEEF2401FFE43EFE02057FF0
:100003000202ABE86480F8E933E83360110460F07E
:10001300ED33EC337009E8FCE9FDEAFEEBFF220463
:1000230060DED3EB9FEA9EE99DE8C2E78CF0C2F75E
:1000330095F0400CE8CCF8E9CDF9EACEFAEBCFFB2A
:1000430012027685D0F05804700320D5B3E804700B
:10005300075002B2D50202B592D5EC0460F7E4CCA6
:10006300C0E0C398F8603B94186008400DD0E0FBF3
:1000730002028DE4FBFAC9FC8028E830E406E4C9F7
:10008300FBE4CAFCE830E305E4C9CACBFCE8540747
:100093006010F8C3E913F9EA13FAEB13FBEC13FC52
:1000A300D8F130F52FC3E49CFCEF9BFFEE9AFEEDF5
:1000B30099FDD0E0FBEF4E4D4C701222DB030202A0
:1000C300B2EC2CFCEF33FFEE33FEED33FDED30E706
:1000D300EB02028DEF2BFFEE3AFEED39FDD0E0FB94
:1000E30050130BBB00030202B5ED13FDEE13FEEF3D
:0800F30013FFEC13FC02028D67
:1000FB00EC4D6011E8497017ED33EC3304600DE4FF
:10010B00FCFFFEFD22E933E8330470F80202AB1268
:10011B00027658046009E4CC248150062850090269
:10012B0002B52840030202B2C0E0EB4A7044B9802A
:10013B0006D0E0FB0202A1EF4E701CBD8008EBFF66
:10014B00EAFEE9FD80EBE98DF0A4FEE5F00201E4A7
:10015B00E9CDF9EAFEEBFFEF89F0A4FCE5F0CE89DF
:10016B00F0A42EFFE435F0CD89F0A42DFEE435F09C
:10017B008067EF4E7005BD80D780C3EF8BF0A4ACCA
:10018B00F0EE8BF0A42CFCE435F0F8EF8AF0A42C05
:10019B00E5F038FCE433CB8DF0A42CFCE5F03BF818
:1001AB00EE8AF0A42CFCE5F038F8E433CF89F0A408
:1001BB002CFCE5F038CF3400CE89F0A42FFFE5F00E
:1001CB003EFEE433C98DF0A42EFEE5F039CD8AF066
:1001DB00A42FFFE5F03EFEE43DFD33D0E0FB5007DE
:1001EB000BBB000F0202B5EC2CFCEF33FFEE33FE22
:0601FB00ED33FD02028D50
:1002010075F020800E75F010800575F0087D007E78
:10021100007F003392D530D5031203C8EC33401070
:10022100EF33FFEE33FEED33FDEC33FCD5F0ED2281
:0E023100E5F0247EA2D513CC92E7CDCEFF22BD
:10023F00EDD2E7CD33EC3392D524814006E4FFFEB7
:10024F00FDFC22FCE4CFCECDCC24E0501174FF8016
:10025F00EDC3CC13CCCD13CDCE13CECF13CF0470B3
:07026F00F030D5DE0203C8E8
:10027600E9D2E7C933E833F892D5EDD2E7CD33ECCE
:0702860033FC5002B2D52247
:10028D00EC30E7100FBF000C0EBE00080DBD0004D2
:10029D000BEB6014A2D5EB13FCED92E7FD2274FF7E
:1002AD00FCFDFEFF22E480F8A2D574FF13FC7D80D7
:0302BD00E480EFEB
:1002C000E709F608DFFA8046E709F208DFFA803E20
:1002D00088828C83E709F0A3DFFA8032E309F6080D
:1002E000DFFA8078E309F208DFFA807088828C8375
:1002F000E309F0A3DFFA806489828A83E0A3F60829
:10030000DFFA805889828A83E0A3F208DFFA804C02
:1003100080D280FA80C680D4806980F280338010D9
:1003200080A680EA809A80A880DA80E280CA803342
:1003300089828A83ECFAE493A3C8C582C8CCC583BA
:10034000CCF0A3C8C582C8CCC583CCDFE9DEE7808A
:100350000D89828A83E493A3F608DFF9ECFAA9F009
:10036000EDFB2289828A83ECFAE0A3C8C582C8CC5F
:10037000C583CCF0A3C8C582C8CCC583CCDFEADE78
:10038000E880DB89828A83E493A3F208DFF980CCDA
:1003900088F0EF60010E4E60C388F0ED2402B404D3
:1003A0000050B9F582EB2402B4040050AF2323457A
:0603B0008223900310738C
:1003B600EF8DF0A4A8F0CF8CF0A428CE8DF0A42E5B
:0203C600FE2215
:0E03C800C3E49FFFE49EFEE49DFDE49CFC2246
:00000001FF
