:0300000002013CBE
:0C013C00787FE4F6D8FD75810902008E82
:10008E00E4F5081201140508E508C3948040F4E471
:10009E00F5081201280508E508C3948040F4E4F53C
:1000AE0008E508C3948050D87F0A7E001200E6054A
:0300BE000880EEC9
:1000E600EF1F70011EC3EE64809480400BE4FDEDAB
:0900F600C3947350EB0D80F72256
:1000FF007C007D0C120003EF1F70011EC3EE6480A5
:05010F00948050F32272
:0801480001030206040C080982
:1000C100EF3395E0FE74482FF58274013EF583E429
:0200D10093FF9B
:1000D300EFC454F0FFE5A0540F4FF5A07F057E0059
:0300E3000200E632
:10011400E4F509AF091200C10509C3E50964809437
:040124008840F022FD
:10012800750907AF091200C11509C3E50964809470
:040138008050F022E1
:10000300C2D5EC30E709B2D5E4C39DFDE49CFCEE18
:1000130030E715B2D5E4C39FFFE49EFE120039C357
:10002300E49DFDE49CFC800312003930D507C3E452
:060033009FFFE49EFE2287
:10003900BC000BBE0029EF8DF084FFADF022E4CCAB
:10004900F875F008EF2FFFEE33FEEC33FCEE9DEC74
:10005900984005FCEE9DFE0FD5F0E9E4CEFD22EDBA
:10006900F8F5F0EE8420D21CFEADF075F008EF2F04
:10007900FFED33FD4007985006D5F0F222C398FDF5
:050089000FD5F0EA2292
:00000001FF
