:030000000207D321
:0C07D300787FE4F6D8FD75814F02081A0B
:100896002562643B0025626400506C6561736520C7
:1008A600456E74657220436F6D6D616E642C666F64
:1008B60072206578616D706C653A313B204F72200D
:0508C600303B0D0A00AB
:10085F007526FF752708752896752900752A007566
:10086F002B22120400EF64014E7010E52214600871
:10087F00047008120A728003120A6F7BFF7A0879DC
:07088F009B85222602008870
:1009F600120A317BFF7A08795F120A557BFF7A0863
:070A0600799F12008880FEB9
:080A3C00033E000000013D0033
:0B0A31001209D77F10120A67D2AF2213
:070A55008B3E8A3F8940221D
:10093500AF99AE3D053D74412EF8EFF6643B600579
:10094500E53DB40F1AE4F53DE540453F453E600FF2
:100955007B007A007941854082853F831206D82243
:1008CB008B088A09890AE94A4B6029AB08AA09A94E
:1008DB000A120699FF601D120A4DAB08AA09A90A54
:1008EB00120699643B600D7401250AF50AE435097B
:0508FB00F50980D72281
:03002300020003D5
:10000300C0E0C0F0C083C082C0D075D0183098055E
:10001300C298120935D0D0D082D083D0F0D0E0324C
:030A6F00C2A02200
:030A7200D2A022ED
:040A6700EF42A82290
:1009D700E587543F4480F587C29FD29EE589540F2F
:0F09E7004420F589758BFA758DFAD28ED29C2239
:080A45003098FDAF99C2982220
:080A4D008F993099FDC2992236
:10098D008B0B8A0C890DE4FEEE6D6016120A45ABD9
:10099D000BAA0CA90D8E82758300EF1206B20EBF45
:0509AD000AE6AF06227E
:100900008B0E8A0F8910E94A4B6029AB0EAA0FA9FA
:1009100010120699FF601D120A4DAB0EAA0FA91006
:10092000120699640A600D74012510F510E4350F64
:05093000F50F80D72245
:1009B2008B118A128913E4FEEE6D6016120A45ABA2
:1009C20011AA12A9138E82758300EF1206B20EEFDE
:0509D20070E6AF0622F3
:100965008B148A158916E94A4B601CAB14AA15A984
:1009750016120699FF6010120A4D74012516F51618
:08098500E43515F51580E422AC
:060A5C00AE07120A4D2254
:040A6B00120A452204
:1007DF000209F6E493A3F8E493A34003F68001F231
:1007EF0008DFF48029E493A3F85407240CC8C3331B
:1007FF00C4540F4420C8834004F456800146F6DFEA
:10080F00E4800B0102040810204080900A3CE47E33
:10081F00019360BCA3FF543F30E509541FFEE493DE
:10082F00A360010ECF54C025E060A840B8E493A3A5
:10083F00FAE493A3F8E493A3C8C582C8CAC583CAD0
:10084F00F0A3C8C582C8CAC583CADFE9DEE780BE88
:010A440000B1
:10069900BB010689828A83E0225002E722BBFE025F
:0906A900E32289828A83E4932292
:1006B200F8BB010DE58229F582E5833AF583E8F07E
:1006C200225006E92582C8F622BBFE05E92582C82A
:0206D200F22212
:0606D4008A838982E473B1
:10002600E5322426F8E605322278233007027826C0
:10003600E475F0011207690206992000EB7F2ED2C3
:10004600008018EF540F2490D43440D4FF30040BB2
:10005600EF24BFB41A0050032461FFE53360021594
:10006600330536E5367002053530070D7823E4751D
:10007600F001120769EF020707020A5C7403D20750
:100086008003E4C207F5328B238A248925E4F533FD
:10009600F535F536E53360077F2012006180F5758A
:1000A60034FFC201C200C202C203C205C206C208B0
:1000B60012002FFF700D3007057F00120072AF3659
:1000C600AE3522B4255FC2D5C20412002FFF24D05C
:1000D600B40A00501A75F00A783330D50508B6FF11
:1000E6000106C6A426F620D5047002D20380D924C0
:1000F600CFB41A00EF5004C2E5D204020272D20154
:1001060080C6D20080C0D20280BCD2D580BAD205C9
:1001160080B47F201200612002077401B5330040CD
:10012600F1120026FF12006102009AD208D2068060
:1001360095120026FB120026FA120026F94A4B7089
:100146000679437A037BFF20022EE533602A7E0080
:100156008E827583001206DA60060EEE653470F044
:10016600C2D5EBC0E0EAC0E0E9C0E0EE1202B9D0C9
:10017600E0F9D0E0FAD0E0FB120699FF60AAEBC0E6
:10018600E0EAC0E0E9C0E0120061D0E02401F9D065
:10019600E03400FAD0E0FBE5340460DCD534D980E5
:1001A600877BFF7A0279B5D202809C79108002792A
:1001B60008C206C2088008D2D5790A8004790AC224
:1001C600D5E534047002F534E4FAFDFEFF1200268C
:1001D600FC7B08200113120026FD7B1030000A125A
:1001E6000026FE120026FF7B20EC3382D592D550E6
:1001F60013C3E43000069FFFE49EFEE42001039D46
:10020600FDE49CFCE4CBF8C201EC700CCFCECDCC67
:10021600E824F8F870F38017C3EF33FFEE33FEEDF2
:1002260033FDEC33FCEB33FB994002FB0FD8E9EBD3
:10023600300105F8D0E0C448B201C0E00AEC4D4EEA
:100246004F78207B0070C2EAB5340040BCC0E01293
:1002560002BBD0F0D0E0200104C4C0E0C4B201C0AB
:10026600F012004AD0F0D5F0EB02009A120789018D
:10027600375301B15801084C01044201B54F01BD85
:0F0286004401BD49011D4301C35501A74601A70E
:100295004501A747036350010C2D01102E01332B97
:1002A500011423013120034C2A00CC480000012B06
:1002B5003F3F3F00790AA2D5200314300509B91044
:1002C500020404B9080104A2D52006025001042045
:1002D50002689202B533005034C0E07F2030031924
:1002E5007F30A20272067205500F120312C202C2BB
:1002F50006C205C2087F30800F300503E9C0E01251
:100305000061300503D0E0F9D0E0B533CC300517F6
:100315007F30B9100C1200617F583004077F788058
:1003250003B908031200613002057F2D0200617FC9
:10033500202008F87F2B2006F322920280CF286E1A
:10034500756C6C2900D2011200263001F8C20178C3
:100355003330D50108F60200CC2D50434958120020
:10036500262403B405004001E490035E9312005275
:0D037500743A120052D2037533040201B134
:10038200E53830030104F823282426F822782330A4
:1003920003027826E475F00112076902069960ECFF
:1003A200C53C7002153B14C53C200304FF020A62DF
:1003B200782374FFF5F0020779FF020A0DE5396030
:1003C20006D539037F002220030F120A20EF6008AE
:1003D200053CE53C7002053B2278231207601206B9
:1003E20099FF60E97823E475F00112076980DE1253
:1003F20003C9EFC0E01203BBD0E040F380A0D203F8
:100402008002C2038B238A248925E4F53AF538F564
:100412003BF53C753900C202C200C201C20412039C
:100422008FFF7005AF3A7E0022B4253012038FFF92
:1004320024D0B40A00500C75F00AC539A42539F548
:100442003980E924CFB41A00EF5002C2E5020665F2
:10045200D20180D8D20080D4D20480D0EF1203BB64
:1004620050081203F1EF600E80A9EFC0E01203C939
:10047200D0E06F609EEF60741203A080A71203C9E0
:10048200EF6069E5397007053980031203C9EF602F
:100492001420040E120382E475F001120769EF12B0
:1004A2000707D539E62004040538053A80BA120355
:1004B200BFEFC0E01203BBD0E050041203A0E4FF80
:1004C20020040E120382E475F001120769EF12078D
:1004D20007EF70DA2004040538053A808BE53960AD
:1004E2000205391203F11203BFEF70C6300304E4B0
:1004F2001203A0E53A60030204267EFF7FFF22205A
:10050200041174FFFCFDFEFF120382120760120742
:10051200460538020415D0E080D27900800A7910AD
:10052200800679088002790AD205E5396002053928
:10053200E9C0E01203F1EF60DD1203C9BF2D04D25E
:10054200028003BF2B091203F1EF60CA1203BFD06E
:10055200E0B40A028033B40802802EBF3027700252
:100562007408C205C0E01203BFD0E0BF7802800366
:10057200BF58160539D539028007D53904D205800E
:100582000B741080197002740ABF000AEFF8E4FCC1
:10059200FDFEFF020618C0E0EF1203A0D0E0F9E46E
:1005A200FCFDFEFFE9C0E0ECC0E0EDC0E0EEC0E023
:1005B200EFC0E01203BFEFF8D0E0FFD0E0FED0E0E2
:1005C200FDD0E0FCD0F0E8604DB461004007B47BA0
:1005D200005002C2E524D0503DFA24F6500724F917
:1005E2005034240AFAEAB5F000502BCFA9F0A42F18
:1005F200FF92D5E9C5F0CEA4A2D53EFE92D5E9C5BB
:10060200F0CDA4A2D53DFD92D5E9C5F0CCA4A2D5EA
:0B0612003CFCC205808EE8C0E0200424
:10061D002A200508053A3002031207381203821208
:10062D000760053820000B20010DEE8FF012071921
:10063D0080091207468004EF120707D0E01203A0CD
:10064D000204152004101203821207600538E53BE1
:10065D00853CF012071980E812078904DF53052045
:10066D005804564C045242042E4805244F05284484
:10067D00047F43051C49052855050146050145051F
:0C068D000147045A2A06504E0000045E8B
:1006DA00BB010CE58229F582E5833AF583E02250D5
:1006EA0006E92582F8E622BBFE06E92582F8E2221F
:0D06FA00E58229F582E5833AF583E4932239
:10070700BB010689828A83F0225002F722BBFE01D1
:02071700F322CB
:10071900BB010A89828A83F0E5F0A3F0225006F72B
:0F07290009A7F01922BBFE06F3E5F009F3192228
:0E073800C3E49FFFE49EFEE49DFDE49CFC22D2
:10074600BB010789828A830207BB5005E9F80207C5
:0A075600AFBBFE05E9F80207C72259
:09076000E6FB08E6FA08E6F922BE
:10076900FAE6FB0808E6F925F0F618E6CA3AF62291
:10077900FAE6FB0808E625F0F9F618E63AFAF62251
:10078900D083D082F8E4937012740193700DA3A3FF
:1007990093F8740193F5828883E473740293686013
:0607A900EFA3A3A380DF13
:100A200010090B120A6BBF0D027F0A020A5CAF1796
:010A300022A3
:050A62008F17D20922EC
:100A0D00EFC394094005EF940E4003BF2003D3803C
:030A1D0001C322F0
:0C07AF00ECF608EDF608EEF608EFF62276
:0C07BB00ECF0A3EDF0A3EEF0A3EFF022B1
:0C07C700ECF208EDF208EEF208EFF2226E
:00000001FF
