:030000000200B249
:0C00B200787FE4F6D8FD7581110200F99A
:1001C9001202367D647C007FDC7E051200037D64AB
:1001D9007C007FD07E071200037D647C007FDC7E7B
:1001E900051200037D647C007FE87E031200038012
:0101F900D233
:04024100021005DCC6
:0E022800D2A7120213C2A77F147E000201FAB1
:100003008E088F098C0A8D0BC3E5119509E50864E9
:1000130080F8E510648098502B85100C85110DC372
:10002300E50D9509E5086480F8E50C648098505166
:10003300AF0DAE0C1202287419250DF50DE4350C25
:10004300F50C80DBD3E5119509E5086480F8E5102C
:10005300648098402C85100C85110DD3E50D95090E
:10006300E5086480F8E50C6480984015AF0DAE0C8C
:1000730012022874E7250DF50D74FF350CF50C807D
:10008300DAE4F50EF50FC3E50F950BE50A6480F886
:10009300E50E6480985011AF09AE08120228050FCF
:0F00A300E50F7002050E80DE8508108509112219
:0B0236007D647C007FDC7E050200037D
:1001FA00EF1F70011EC3EE64809480400BE4FDED96
:09020A00C3947350EB0D80F72240
:100213007C007D0C12013EEF1F70011EC3EE648053
:05022300948050F3225D
:1000BE000201C9E493A3F8E493A34003F68001F28E
:1000CE0008DFF48029E493A3F85407240CC8C33343
:1000DE00C4540F4420C8834004F456800146F6DF12
:1000EE00E4800B0102040810204080900241E47E5F
:1000FE00019360BCA3FF543F30E509541FFEE49307
:10010E00A360010ECF54C025E060A840B8E493A3CD
:10011E00FAE493A3F8E493A3C8C582C8CAC583CAF8
:10012E00F0A3C8C582C8CAC583CADFE9DEE780BEB0
:0102450000B8
:10013E00C2D5EC30E709B2D5E4C39DFDE49CFCEEDC
:10014E0030E715B2D5E4C39FFFE49EFE120174C3DF
:10015E00E49DFDE49CFC800312017430D507C3E4DA
:06016E009FFFE49EFE224B
:10017400BC000BBE0029EF8DF084FFADF022E4CC6F
:10018400F875F008EF2FFFEE33FEEC33FCEE9DEC38
:10019400984005FCEE9DFE0FD5F0E9E4CEFD22ED7E
:1001A400F8F5F0EE8420D21CFEADF075F008EF2FC8
:1001B400FFED33FD4007985006D5F0F222C398FDB9
:0501C4000FD5F0EA2256
:00000001FF
