:0300000002016793
:0C016700787FE4F6D8FD7581090200B62F
:100118008E088F09120173AF09AE081200FF120191
:0801280076AF09AE080200FFEA
:1000B60012008EEF24FE60110470F51200DD40F090
:1000C6007F647E0012011880F21200DD40E27F1E7E
:0700D6007E0012011880F208
:1000FF00EF1F70011EC3EE64809480400BE4FDED92
:09010F00C3947350EB0D80F7223C
:100130007C007D0C120003EF1F70011EC3EE648073
:05014000948050F32241
:1001450020A10C7F0A7E001200FF20A102D322C34A
:010155002287
:1001560030A10C7F0A7E001200FF30A102D322C319
:010166002276
:1000DD00120145501BE4F5091201565001227F0A09
:1000ED007E001200FF0509C3E509648094E440E831
:0200FD00C3221C
:10008E001200DD5020E4F5081200DD50037F02223D
:10009E007F0A7E001200FF0508C3E508648094B253
:0800AE0040E67F01227F0022E1
:03017300C2A02205
:03017600D2A022F2
:10000300C2D5EC30E709B2D5E4C39DFDE49CFCEE18
:1000130030E715B2D5E4C39FFFE49EFE120039C357
:10002300E49DFDE49CFC800312003930D507C3E452
:060033009FFFE49EFE2287
:10003900BC000BBE0029EF8DF084FFADF022E4CCAB
:10004900F875F008EF2FFFEE33FEEC33FCEE9DEC74
:10005900984005FCEE9DFE0FD5F0E9E4CEFD22EDBA
:10006900F8F5F0EE8420D21CFEADF075F008EF2F04
:10007900FFED33FD4007985006D5F0F222C398FDF5
:050089000FD5F0EA2292
:00000001FF
