:030000000207E50F
:0C07E500787FE4F6D8FD75815202082CE4
:10087100256264202A20256264203D20252D3262D4
:1008810064207C20000D0A003E3F25642A25643B3C
:10089100002564202A202564203D2025640D0A00BE
:1008A100556E6B6E6F776E20436F6D6D616E642157
:1008B1000D0A00506C6561736520456E7465722088
:1008C1005175657374696F6E2C666F7220657861FE
:0E08D1006D706C653A3E3F392A393B0D0A00C6
:10093200752601752701D3E5266480F8E5276480D2
:1009420098501B7BFF7A08797185272B85262CE529
:10095200278526F0A4F52D120088052780D87BFF75
:100962007A0879861200880526D3E5266480948960
:0209720040C182
:010974002260
:1008DF007529FF752A08752B89752C00752D0075E4
:1008EF002E22752F00753000753124120400EF642D
:1008FF00024E7BFF70227A08799285222B85232C5A
:10090F0085242D85252EAC24AD25AE22AF231206CE
:10091F00D48E2F8F300200887A0879A112008812A6
:02092F0009328B
:0109310022A3
:100AA000120ADB7BFF7A0879DF120AFF7BFF7A08E4
:070AB00079B412008880FEFA
:080AE600034100000001400083
:0B0ADB00120A817F10120B11D2AF2213
:070AFF008B418A428943226A
:1009DF00AF99AE40054074442EF8EFF6643B6005C6
:1009EF00E540B40F1AE4F540E54345424541600F39
:1009FF007B007A0079448543828542831206EA227E
:100975008B088A09890AE94A4B6029AB08AA09A9A3
:100985000A120699FF601D120AF7AB08AA09A90AFF
:10099500120699643B600D7401250AF50AE43509D0
:0509A500F50980D722D6
:03002300020003D5
:10000300C0E0C0F0C083C082C0D075D0183098055E
:10001300C2981209DFD0D0D082D083D0F0D0E032A2
:040B1100EF42A822E5
:100A8100E587543F4480F587C29FD29EE589540F84
:0F0A91004420F589758BFA758DFAD28ED29C228E
:080AEF003098FDAF99C2982276
:080AF7008F993099FDC299228C
:100A37008B0B8A0C890DE4FEEE6D6016120AEFAB84
:100A47000BAA0CA90D8E82758300EF1206B20EBF9A
:050A57000AE6AF0622D3
:1009AA008B0E8A0F8910E94A4B6029AB0EAA0FA950
:1009BA0010120699FF601D120AF7AB0EAA0FA910B2
:1009CA00120699640A600D74012510F510E4350FBA
:0509DA00F50F80D7229B
:100A5C008B118A128913E4FEEE6D6016120AEFAB4D
:100A6C0011AA12A9138E82758300EF1206B20EEF33
:050A7C0070E6AF062248
:100A0F008B148A158916E94A4B601CAB14AA15A9D9
:100A1F0016120699FF6010120AF774012516F516C3
:080A2F00E43515F51580E42201
:060B0600AE07120AF722FF
:040B1500120AEF22AF
:1007F100020AA0E493A3F8E493A34003F68001F274
:1008010008DFF48029E493A3F85407240CC8C33308
:10081100C4540F4420C8834004F456800146F6DFD7
:10082100E4800B0102040810204080900AE6E47E77
:10083100019360BCA3FF543F30E509541FFEE493CC
:10084100A360010ECF54C025E060A840B8E493A393
:10085100FAE493A3F8E493A3C8C582C8CAC583CABE
:10086100F0A3C8C582C8CAC583CADFE9DEE780BE76
:010AEE000007
:10069900BB010689828A83E0225002E722BBFE025F
:0906A900E32289828A83E4932292
:1006B200F8BB010DE58229F582E5833AF583E8F07E
:1006C200225006E92582C8F622BBFE05E92582C82A
:0206D200F22212
:1006D400EF8DF0A4A8F0CF8CF0A428CE8DF0A42E3A
:0206E400FE22F4
:0606E6008A838982E4739F
:10002600E537242BF8E60537227828300702782BA7
:10003600E475F00112077B0206992000EB7F2ED2B1
:10004600008018EF540F2490D43440D4FF30040BB2
:10005600EF24BFB41A0050032461FFE5386002158F
:1000660038053BE53B7002053A30070D7828E47504
:10007600F00112077BEF020719020B067403D20781
:100086008003E4C207F5378B288A29892AE4F538E4
:10009600F53AF53BE53860077F2012006180F5757B
:1000A60039FFC201C200C202C203C205C206C208AB
:1000B60012002FFF700D3007057F00120072AF3B54
:1000C600AE3A22B4255FC2D5C20412002FFF24D057
:1000D600B40A00501A75F00A783830D50508B6FF0C
:1000E6000106C6A426F620D5047002D20380D924C0
:1000F600CFB41A00EF5004C2E5D204020272D20154
:1001060080C6D20080C0D20280BCD2D580BAD205C9
:1001160080B47F201200612002077401B5380040C8
:10012600F1120026FF12006102009AD208D2068060
:1001360095120026FB120026FA120026F94A4B7089
:100146000679437A037BFF20022EE538602A7E007B
:100156008E827583001206EC60060EEE653970F02D
:10016600C2D5EBC0E0EAC0E0E9C0E0EE1202B9D0C9
:10017600E0F9D0E0FAD0E0FB120699FF60AAEBC0E6
:10018600E0EAC0E0E9C0E0120061D0E02401F9D065
:10019600E03400FAD0E0FBE5390460DCD539D980DB
:1001A600877BFF7A0279B5D202809C79108002792A
:1001B60008C206C2088008D2D5790A8004790AC224
:1001C600D5E539047002F539E4FAFDFEFF12002682
:1001D600FC7B08200113120026FD7B1030000A125A
:1001E6000026FE120026FF7B20EC3382D592D550E6
:1001F60013C3E43000069FFFE49EFEE42001039D46
:10020600FDE49CFCE4CBF8C201EC700CCFCECDCC67
:10021600E824F8F870F38017C3EF33FFEE33FEEDF2
:1002260033FDEC33FCEB33FB994002FB0FD8E9EBD3
:10023600300105F8D0E0C448B201C0E00AEC4D4EEA
:100246004F78207B0070C2EAB5390040BCC0E0128E
:1002560002BBD0F0D0E0200104C4C0E0C4B201C0AB
:10026600F012004AD0F0D5F0EB02009A12079B017B
:10027600375301B15801084C01044201B54F01BD85
:0F0286004401BD49011D4301C35501A74601A70E
:100295004501A747036350010C2D01102E01332B97
:1002A500011423013120034C2A00CC480000012B06
:1002B5003F3F3F00790AA2D5200314300509B91044
:1002C500020404B9080104A2D52006025001042045
:1002D50002689202B538005034C0E07F203003191F
:1002E5007F30A20272067205500F120312C202C2BB
:1002F50006C205C2087F30800F300503E9C0E01251
:100305000061300503D0E0F9D0E0B538CC300517F1
:100315007F30B9100C1200617F583004077F788058
:1003250003B908031200613002057F2D0200617FC9
:10033500202008F87F2B2006F322920280CF286E1A
:10034500756C6C2900D2011200263001F8C20178C3
:100355003830D50108F60200CC2D5043495812001B
:10036500262403B405004001E490035E9312005275
:0D037500743A120052D2037538040201B12F
:10038200E53B30030104F823282429F8227826309B
:1003920003027829E475F00112077B02069960ECEA
:1003A200C53F7002153E14C53F200304FF020B0C2B
:1003B200782674FFF5F002078BFF020AB7E53C606E
:1003C20006D53C037F002220030F120ACAEF600801
:1003D200053FE53F7002053E22782612077212069B
:1003E20099FF60E97826E475F00112077B80DE123E
:1003F20003C9EFC0E01203BBD0E040F380A0D203F8
:100402008002C2038B268A278928E4F53DF53BF555
:100412003EF53F753C00C202C200C201C204120393
:100422008FFF7005AF3D7E0022B4253012038FFF8F
:1004320024D0B40A00500C75F00AC53CA4253CF542
:100442003C80E924CFB41A00EF5002C2E5020665EF
:10045200D20180D8D20080D4D20480D0EF1203BB64
:1004620050081203F1EF600E80A9EFC0E01203C939
:10047200D0E06F609EEF60741203A080A71203C9E0
:10048200EF6069E53C7007053C80031203C9EF6029
:100492001420040E120382E475F00112077BEF129E
:1004A2000719D53CE6200404053B053D80BA12033A
:1004B200BFEFC0E01203BBD0E050041203A0E4FF80
:1004C20020040E120382E475F00112077BEF12077B
:1004D20019EF70DA200404053B053D808BE53C6092
:1004E20002053C1203F11203BFEF70C6300304E4AD
:1004F2001203A0E53D60030204267EFF7FFF222057
:10050200041174FFFCFDFEFF120382120772120730
:1005120058053B020415D0E080D27900800A791098
:10052200800679088002790AD205E53C6002053C22
:10053200E9C0E01203F1EF60DD1203C9BF2D04D25E
:10054200028003BF2B091203F1EF60CA1203BFD06E
:10055200E0B40A028033B40802802EBF3027700252
:100562007408C205C0E01203BFD0E0BF7802800366
:10057200BF5816053CD53C028007D53C04D2058005
:100582000B741080197002740ABF000AEFF8E4FCC1
:10059200FDFEFF020618C0E0EF1203A0D0E0F9E46E
:1005A200FCFDFEFFE9C0E0ECC0E0EDC0E0EEC0E023
:1005B200EFC0E01203BFEFF8D0E0FFD0E0FED0E0E2
:1005C200FDD0E0FCD0F0E8604DB461004007B47BA0
:1005D200005002C2E524D0503DFA24F6500724F917
:1005E2005034240AFAEAB5F000502BCFA9F0A42F18
:1005F200FF92D5E9C5F0CEA4A2D53EFE92D5E9C5BB
:10060200F0CDA4A2D53DFD92D5E9C5F0CCA4A2D5EA
:0B0612003CFCC205808EE8C0E0200424
:10061D002A200508053D30020312074A12038212F3
:10062D000772053B20000B20010DEE8FF012072BFA
:10063D0080091207588004EF120719D0E01203A0A9
:10064D00020415200410120382120772053BE53EC9
:10065D00853FF012072B80E812079B04DF5305201E
:10066D005804564C045242042E4805244F05284484
:10067D00047F43051C49052855050146050145051F
:0C068D000147045A2A06504E0000045E8B
:1006EC00BB010CE58229F582E5833AF583E02250C3
:1006FC0006E92582F8E622BBFE06E92582F8E2220D
:0D070C00E58229F582E5833AF583E4932226
:10071900BB010689828A83F0225002F722BBFE01BF
:02072900F322B9
:10072B00BB010A89828A83F0E5F0A3F0225006F719
:0F073B0009A7F01922BBFE06F3E5F009F3192216
:0E074A00C3E49FFFE49EFEE49DFDE49CFC22C0
:10075800BB010789828A830207CD5005E9F80207A1
:0A076800C1BBFE05E9F80207D92223
:09077200E6FB08E6FA08E6F922AC
:10077B00FAE6FB0808E6F925F0F618E6CA3AF6227F
:10078B00FAE6FB0808E625F0F9F618E63AFAF6223F
:10079B00D083D082F8E4937012740193700DA3A3ED
:1007AB0093F8740193F5828883E473740293686001
:0607BB00EFA3A3A380DF01
:100ACA0010090B120B15BF0D027F0A020B06AF1796
:010ADA0022F9
:050B0C008F17D2092241
:100AB700EFC394094005EF940E4003BF2003D38092
:030AC70001C32246
:0C07C100ECF608EDF608EEF608EFF62264
:0C07CD00ECF0A3EDF0A3EEF0A3EFF0229F
:0C07D900ECF208EDF208EEF208EFF2225C
:00000001FF
