:03000000020128D2
:0C012800787FE4F6D8FD75810902008E96
:10008E00E4F508AF081200B60508D3E508648094BD
:10009E00E440F0E4F508D3E508648094E450E1AF61
:0800AE00081200D8050880EEDD
:1000B6008F09C2A7D2A6EF3395E0FE1200FAC2A6B8
:1000C600AF09EF3395E0FEC374649FFFE49EFE0222
:0200D60000FA2E
:1000D8008F09C2A6D2A7EF3395E0FE1200FAC2A795
:1000E800AF09EF3395E0FEC374649FFFE49EFE0200
:0200F80000FA0C
:1000FA00EF1F70011EC3EE64809480400BE4FDED97
:09010A00C3947350EB0D80F72241
:100113007C007D0C120003EF1F70011EC3EE648090
:05012300948050F3225E
:10000300C2D5EC30E709B2D5E4C39DFDE49CFCEE18
:1000130030E715B2D5E4C39FFFE49EFE120039C357
:10002300E49DFDE49CFC800312003930D507C3E452
:060033009FFFE49EFE2287
:10003900BC000BBE0029EF8DF084FFADF022E4CCAB
:10004900F875F008EF2FFFEE33FEEC33FCEE9DEC74
:10005900984005FCEE9DFE0FD5F0E9E4CEFD22EDBA
:10006900F8F5F0EE8420D21CFEADF075F008EF2F04
:10007900FFED33FD4007985006D5F0F222C398FDF5
:050089000FD5F0EA2292
:00000001FF
