:03000000020BD818
:0C0BD800787FE4F6D8FD758141020B5ACD
:0D0BCB006469733A252E33666D6D0D0A00C6
:100B5A00120B7E120C16120AB88F258E248D238C46
:100B6A00227BFF7A0B79CB8F2C8E2B8D2A8C291224
:040B7A00067680E299
:100B7E00E587543F4480F587C29FD29EE589540F86
:0F0B8E004420F589758BFA758DFAD28ED29C2290
:080C00003098FDAF99C2982263
:080C08008F993099FDC2992279
:100B10008B088A09890AE4FEEE6D6016120C00ABA0
:100B200008AA09A90A8E82758300EF1205230EBF59
:050B30000AE6AF0622F9
:100A83008B0B8A0C890DE94A4B6029AB0BAA0CA985
:100A93000D1204CBFF601D120C08AB0BAA0CA90DA1
:100AA3001204CB640A600D7401250DF50DE4350CB9
:050AB300F50C80D722C4
:100B35008B0E8A0F8910E4FEEE6D6016120C00AB69
:100B45000EAA0FA9108E82758300EF1205230EEFF2
:050B550070E6AF06226E
:100AE8008B118A128913E94A4B601CAB11AA12A90F
:100AF800131204CBFF6010120C0874012513F513B0
:080B0800E43512F51280E4222D
:060C1000AE07120C0822E1
:040C1C00120C002294
:060C1600120BEED2A42235
:100AB800D2A4D2A37F0A7E00120BB6C2A330A4FD33
:100AC800120BE420A4FD120C20120BF7AD07AC06A4
:100AD800E41200A87B787A7A79AD78401200062271
:100B9D00EF1F70011EC3EE64809480400BE4FDEDE9
:090BAD00C3947350EB0D80F72294
:100BB6007C007D0C120545EF1F70011EC3EE64809C
:050BC600948050F322B1
:090BEE00E58954F04401F5892267
:0A0BE400E4F58AF58CC28DD28C2254
:030C2000C28C2261
:090BF700AF8CEFFEAD8AEDFF2288
:10000300020120EC5D046005E85904700302011647
:100013001200E1580460F6EC4860F2EC7004FDFE57
:10002300FF22C860DB2481C85009C39860025006D0
:1000330002011D9850CAF582E9294B4A7005AB822B
:1000430002010C75F0007C1A7880C3EF9BEE9AEDE9
:1000530099400DC3EF9BFFEE9AFEED99FDE842F048
:10006300DC23ACF0D0E0FFD0E0FED0E0FDAB82209B
:10007300E7101BEB60BAEC2CFCEF33FFEE33FEED25
:1000830033FD0200F8E803F830E705C0F075F0002F
:10009300EF2FFFEE33FEED33FD40B830E7C280AA09
:1000A30075F020800E75F010800575F0087D007ED8
:1000B300007F003392D530D50312057BEC3340101B
:1000C300EF33FFEE33FEED33FDEC33FCD5F0ED22E1
:0E00D300E5F0247EA2D513CC92E7CDCEFF221D
:10061400E53D2429F8E6053D2278263007027829AD
:10062400E475F0011205890204CB2000EB7F2ED281
:10063400008018EF540F2490D43440D4FF30040BBE
:10064400EF24BFB41A0050032461FFE53E60021595
:100654003E0541E5417002054030070D7826E475FA
:10066400F001120589EF020511020C107403D20780
:100674008003E4C207F53D8B268A278928E4F53EEA
:10068400F540F541E53E60077F2012064F80F57581
:100694003FFFC201C200C202C203C205C206C208B1
:1006A40012061DFF700D3007057F00120660AF4172
:1006B400AE4022B4255FC2D5C20412061DFF24D069
:1006C400B40A00501A75F00A783E30D50508B6FF12
:1006D4000106C6A426F620D5047002D20380D924CC
:1006E400CFB41A00EF5004C2E5D20402094DD2017E
:1006F40080C6D20080C0D20280BCD2D580BAD205D6
:1007040080B47F2012064F2002077401B53E0040DA
:10071400F1120614FF12064F020688D208D2068090
:1007240095120614FB120614FA120614F94A4B70B9
:100734000679447A0A7BFF20022EE53E602A7E0079
:100744008E827583001204E460060EEE653F70F03D
:10075400C2D5EBC0E0EAC0E0E9C0E0EE1209ADD0DA
:10076400E0F9D0E0FAD0E0FB1204CBFF60AAEBC0C2
:10077400E0EAC0E0E9C0E012064FD0E02401F9D07D
:10078400E03400FAD0E0FBE53F0460DCD53FD980DB
:1007940087D20280A212099060F7E53F700104122B
:1007A400012BA93F600DE53F600914F53F120A379C
:1007B400EF60F3EA30E702F404C3995077EAF425D2
:1007C4003F0430E701E404F53F800D12099060C155
:1007D400EA053F253F12012BEA783CF630E701E4B5
:1007E400253F04D53F04200501141209ADE4C0E0FF
:1007F400120A37783CE6601320E70714F61206372E
:10080400802204F6D0E014C0E07F00120637E53FF2
:10081400600712062E153F800B30050312062ED0FA
:10082400E0020688D0E00480C512099060A0E53F8C
:100834000412012B783CEAF6E53F2005026001042E
:0508440024041209ADBF
:1008490074FF04C0E0120A37120637E53F2005029B
:10085900600312062ED0E0B53FE87F4512064178C5
:100869003CE67F2B30E7047F2DF404C0E012064FED
:10087900D0E075F00A84C0F0120638D0E0120638CC
:10088900020688791080027908C206C2088008D257
:10089900D5790A8004790AC2D5E53F047002F53F8B
:1008A900E4FAFDFEFF120614FC7B08200113120670
:1008B90014FD7B1030000A120614FE120614FF7B89
:1008C90020EC3382D592D55013C3E43000069FFF44
:1008D900E49EFEE42001039DFDE49CFCE4CBF8C208
:1008E90001EC700CCFCECDCCE824F8F870F380176A
:1008F900C3EF33FFEE33FEED33FDEC33FCEB33FB9B
:10090900994002FB0FD8E9EB300105F8D0E0C44863
:10091900B201C0E00AEC4D4E4F78207B0070C2EA6C
:10092900B53F0040BCC0E01209AFD0F0D0E02001D3
:1009390004C4C0E0C4B201C0F0120638D0F0D5F04A
:10094900EB020688120599072553088C5806F64CC0
:1009590006F24208904F089844089849070B430843
:100969009E5507CF46082D450799470A645006FA50
:100979002D06FE2E07212B070223071F200A4D2AC9
:1009890006BA4800000719E53FB4FF03753F061290
:100999000614FC120614FD120614FE120614FF7842
:1009A9003502015A790AA2D5200314300509B91074
:1009B900020404B9080104A2D5200602500104204A
:1009C90002689202B53E005034C0E07F203003191E
:1009D9007F30A20272067205500F120A06C202C2C5
:1009E90006C205C2087F30800F300503E9C0E01256
:1009F900064F300503D0E0F9D0E0B53ECC300517FD
:100A09007F30B9100C12064F7F583004077F788069
:100A190003B9080312064F3002057F2D02064F7FE6
:100A2900202008F87F2B2006F322920280CF7F0036
:100A3900B4070050052435F8E6FF22286E756C6C62
:100A49002900D2011206143001F8C201783E30D5CE
:100A59000108F60206BA2D50434958120614240318
:100A6900B405004001E4900A5F93120640743A12FB
:0A0A79000640D203753E0402088C0B
:1000E100E9D2E7C933E833F892D5EDD2E7CD33EC65
:0700F10033FC5002B2D522DE
:1000F800EC30E7100FBF000C0EBE00080DBD000469
:100108000BEB6014A2D5EB13FCED92E7FD2274FF14
:10011800FCFDFEFF22E480F8A2D574FF13FC7D806D
:03012800E480EF81
:10012B00F920E72824F950037907E4F42402FB189B
:10013B00DBFDE624FB5014E9600DE4F618E604F64B
:0F014B00B40A08E4F6D9F57401F60A22C2D522E7
:10015A00ED33EC3392D5FA602AB4FF33EDC2E77B74
:10016A00FF60067A01797FE4227A01798820D50432
:10017A007A017983224E614E002B494E46002D4961
:10018A004E4600E47A08F608DAFC7B00740722E897
:10019A00C0E0ECC0E0EDC0E0EEC0E0EFC0E0EA7520
:1001AA00F010A4CAABF075F04DA42BFBE435F0FCBB
:1001BA00EA2410FAEB34C5FBEC34D9FCEDC2E7FFB4
:1001CA0075F056A4F42411C5F0F434C58FF0A42AAE
:1001DA00E5F03BE43CF620E71412048BD0E0FFD0B4
:1001EA00E0FED0E0FDD0E0FC1200068014F4041218
:1001FA00048BD0E0FFD0E0FED0E0FDD0E0FC12039B
:10020A0055D0E0F8E6FAEDD2E7CD33EC332482FBA1
:10021A00E4C3CF33CFCE33CECD33CD33DBF37B073D
:10022A0075F00A846004F6081B0AE5F0F6088FF0F8
:10023A00740AA4FFACF08EF0740AA42CFEACF05041
:10024A00010C8DF0740AA42CFDE435F0F608DBDE0F
:03025A0074072204
:10025D00020116E86480F8E933E83360110460F0B8
:10026D00ED33EC337009E8FCE9FDEAFEEBFF220407
:10027D0060DED3EB9FEA9EE99DE8C2E78CF0C2F702
:10028D0095F0400CE8CCF8E9CDF9EACEFAEBCFFBCE
:10029D001200E185D0F05804700320D5B3E8047046
:1002AD00075002B2D502012092D5EC0460F7E4CCE0
:1002BD00C0E0C398F8603B94186008400DD0E0FB97
:1002CD000200F8E4FBFAC9FC8028E830E406E4C932
:1002DD00FBE4CAFCE830E305E4C9CACBFCE85407EB
:1002ED006010F8C3E913F9EA13FAEB13FBEC13FCF6
:1002FD00D8F130F52FC3E49CFCEF9BFFEE9AFEED99
:10030D0099FDD0E0FBEF4E4D4C701222DB03020144
:10031D001DEC2CFCEF33FFEE33FEED33FDED30E73E
:10032D00EB0200F8EF2BFFEE3AFEED39FDD0E0FBCE
:10033D0050130BBB0003020120ED13FDEE13FEEF76
:08034D0013FFEC13FC0200F8A1
:10035500EC4D6011E8497017ED33EC3304600DE4A2
:10036500FCFFFEFD22E933E8330470F802011612A2
:1003750000E158046009E4CC2481500628500902A4
:10038500012028400302011DC0E0EB4A7044B980FA
:1003950006D0E0FB02010CEF4E701CBD8008EBFFA0
:1003A500EAFEE9FD80EBE98DF0A4FEE5F002043EEE
:1003B500E9CDF9EAFEEBFFEF89F0A4FCE5F0CE8983
:1003C500F0A42EFFE435F0CD89F0A42DFEE435F040
:1003D5008067EF4E7005BD80D780C3EF8BF0A4AC6E
:1003E500F0EE8BF0A42CFCE435F0F8EF8AF0A42CA9
:1003F500E5F038FCE433CB8DF0A42CFCE5F03BF8BC
:10040500EE8AF0A42CFCE5F038F8E433CF89F0A4AB
:100415002CFCE5F038CF3400CE89F0A42FFFE5F0B1
:100425003EFEE433C98DF0A42EFEE5F039CD8AF009
:10043500A42FFFE5F03EFEE43DFD33D0E0FB500781
:100445000BBB000F020120EC2CFCEF33FFEE33FE5B
:06045500ED33FD0200F88A
:10045B003F8000004120000042C80000447A0000A9
:10046B00461C400047C35000497424004B1896802B
:10047B004CBEBC205A0E1BCA6753C21C749DC5AE22
:10048B00FB60065407601C23231204B9EB5438603D
:10049B00091204A51204B4120355ECF8EDF9EEFAA7
:1004AB00EFCB22EB1204B480F1543803241C9004DC
:1004BB005BFE93FC0EEE93FD0EEE930ECE93FF229E
:1004CB00BB010689828A83E0225002E722BBFE022F
:0904DB00E32289828A83E4932262
:1004E400BB010CE58229F582E5833AF583E02250CD
:1004F40006E92582F8E622BBFE06E92582F8E22217
:0D050400E58229F582E5833AF583E4932230
:10051100BB010689828A83F0225002F722BBFE01C9
:02052100F322C3
:10052300F8BB010DE58229F582E5833AF583E8F00E
:10053300225006E92582C8F622BBFE05E92582C8BA
:02054300F222A2
:10054500C2D5EC30E709B2D5E4C39DFDE49CFCEED1
:1005550030E715B2D5E4C39FFFE49EFE1205BFC385
:10056500E49DFDE49CFC80031205BF30D507C3E480
:060575009FFFE49EFE2240
:0E057B00C3E49FFFE49EFEE49DFDE49CFC2291
:10058900FAE6FB0808E6F925F0F618E6CA3AF62273
:10059900D083D082F8E4937012740193700DA3A3F1
:1005A90093F8740193F5828883E473740293686005
:0605B900EFA3A3A380DF05
:1005BF00BC000BBE0029EF8DF084FFADF022E4CC20
:1005CF00F875F008EF2FFFEE33FEEC33FCEE9DECE9
:1005DF00984005FCEE9DFE0FD5F0E9E4CEFD22ED2F
:1005EF00F8F5F0EE8420D21CFEADF075F008EF2F79
:1005FF00FFED33FD4007985006D5F0F222C398FD6A
:05060F000FD5F0EA2206
:00000001FF
